{
  "_format": "hh-sol-artifact-1",
  "contractName": "Staking",
  "sourceName": "contracts/Staking.sol",
  "abi": [
    {
      "inputs": [
        {
          "internalType": "uint256",
          "name": "currentEthPrice",
          "type": "uint256"
        }
      ],
      "stateMutability": "payable",
      "type": "constructor"
    },
    {
      "inputs": [
        {
          "internalType": "string",
          "name": "name",
          "type": "string"
        },
        {
          "internalType": "string",
          "name": "symbol",
          "type": "string"
        },
        {
          "internalType": "address",
          "name": "tokenAddress",
          "type": "address"
        },
        {
          "internalType": "uint256",
          "name": "usdPrice",
          "type": "uint256"
        },
        {
          "internalType": "uint256",
          "name": "apy",
          "type": "uint256"
        }
      ],
      "name": "addToken",
      "outputs": [],
      "stateMutability": "nonpayable",
      "type": "function"
    },
    {
      "inputs": [
        {
          "internalType": "uint256",
          "name": "apy",
          "type": "uint256"
        },
        {
          "internalType": "uint256",
          "name": "value",
          "type": "uint256"
        },
        {
          "internalType": "uint256",
          "name": "numberDays",
          "type": "uint256"
        }
      ],
      "name": "calculateInterest",
      "outputs": [
        {
          "internalType": "uint256",
          "name": "",
          "type": "uint256"
        }
      ],
      "stateMutability": "pure",
      "type": "function"
    },
    {
      "inputs": [
        {
          "internalType": "uint256",
          "name": "createdDate",
          "type": "uint256"
        }
      ],
      "name": "calculateNumberDays",
      "outputs": [
        {
          "internalType": "uint256",
          "name": "",
          "type": "uint256"
        }
      ],
      "stateMutability": "view",
      "type": "function"
    },
    {
      "inputs": [
        {
          "internalType": "uint256",
          "name": "positionId",
          "type": "uint256"
        }
      ],
      "name": "closePosition",
      "outputs": [],
      "stateMutability": "nonpayable",
      "type": "function"
    },
    {
      "inputs": [],
      "name": "currentPositionId",
      "outputs": [
        {
          "internalType": "uint256",
          "name": "",
          "type": "uint256"
        }
      ],
      "stateMutability": "view",
      "type": "function"
    },
    {
      "inputs": [],
      "name": "currentTokenId",
      "outputs": [
        {
          "internalType": "uint256",
          "name": "",
          "type": "uint256"
        }
      ],
      "stateMutability": "view",
      "type": "function"
    },
    {
      "inputs": [],
      "name": "ethUsdPrice",
      "outputs": [
        {
          "internalType": "uint256",
          "name": "",
          "type": "uint256"
        }
      ],
      "stateMutability": "view",
      "type": "function"
    },
    {
      "inputs": [
        {
          "internalType": "uint256",
          "name": "positionId",
          "type": "uint256"
        }
      ],
      "name": "getPositionById",
      "outputs": [
        {
          "components": [
            {
              "internalType": "uint256",
              "name": "positionId",
              "type": "uint256"
            },
            {
              "internalType": "address",
              "name": "walletAddress",
              "type": "address"
            },
            {
              "internalType": "string",
              "name": "name",
              "type": "string"
            },
            {
              "internalType": "string",
              "name": "symbol",
              "type": "string"
            },
            {
              "internalType": "uint256",
              "name": "createdDate",
              "type": "uint256"
            },
            {
              "internalType": "uint256",
              "name": "apy",
              "type": "uint256"
            },
            {
              "internalType": "uint256",
              "name": "tokenQuantity",
              "type": "uint256"
            },
            {
              "internalType": "uint256",
              "name": "usdValue",
              "type": "uint256"
            },
            {
              "internalType": "uint256",
              "name": "ethValue",
              "type": "uint256"
            },
            {
              "internalType": "bool",
              "name": "open",
              "type": "bool"
            }
          ],
          "internalType": "struct Staking.Position",
          "name": "",
          "type": "tuple"
        }
      ],
      "stateMutability": "view",
      "type": "function"
    },
    {
      "inputs": [],
      "name": "getPositionIdsForAddress",
      "outputs": [
        {
          "internalType": "uint256[]",
          "name": "",
          "type": "uint256[]"
        }
      ],
      "stateMutability": "view",
      "type": "function"
    },
    {
      "inputs": [
        {
          "internalType": "string",
          "name": "tokenSymbol",
          "type": "string"
        }
      ],
      "name": "getToken",
      "outputs": [
        {
          "components": [
            {
              "internalType": "uint256",
              "name": "tokenId",
              "type": "uint256"
            },
            {
              "internalType": "string",
              "name": "name",
              "type": "string"
            },
            {
              "internalType": "string",
              "name": "symbol",
              "type": "string"
            },
            {
              "internalType": "address",
              "name": "tokenAddress",
              "type": "address"
            },
            {
              "internalType": "uint256",
              "name": "usdPrice",
              "type": "uint256"
            },
            {
              "internalType": "uint256",
              "name": "ethPrice",
              "type": "uint256"
            },
            {
              "internalType": "uint256",
              "name": "apy",
              "type": "uint256"
            }
          ],
          "internalType": "struct Staking.Token",
          "name": "",
          "type": "tuple"
        }
      ],
      "stateMutability": "view",
      "type": "function"
    },
    {
      "inputs": [],
      "name": "getTokenSymbols",
      "outputs": [
        {
          "internalType": "string[]",
          "name": "",
          "type": "string[]"
        }
      ],
      "stateMutability": "view",
      "type": "function"
    },
    {
      "inputs": [
        {
          "internalType": "uint256",
          "name": "positionId",
          "type": "uint256"
        },
        {
          "internalType": "uint256",
          "name": "newCreatedDate",
          "type": "uint256"
        }
      ],
      "name": "modifyCreatedDate",
      "outputs": [],
      "stateMutability": "nonpayable",
      "type": "function"
    },
    {
      "inputs": [],
      "name": "owner",
      "outputs": [
        {
          "internalType": "address",
          "name": "",
          "type": "address"
        }
      ],
      "stateMutability": "view",
      "type": "function"
    },
    {
      "inputs": [
        {
          "internalType": "address",
          "name": "",
          "type": "address"
        },
        {
          "internalType": "uint256",
          "name": "",
          "type": "uint256"
        }
      ],
      "name": "positionIdsByAddress",
      "outputs": [
        {
          "internalType": "uint256",
          "name": "",
          "type": "uint256"
        }
      ],
      "stateMutability": "view",
      "type": "function"
    },
    {
      "inputs": [
        {
          "internalType": "uint256",
          "name": "",
          "type": "uint256"
        }
      ],
      "name": "positions",
      "outputs": [
        {
          "internalType": "uint256",
          "name": "positionId",
          "type": "uint256"
        },
        {
          "internalType": "address",
          "name": "walletAddress",
          "type": "address"
        },
        {
          "internalType": "string",
          "name": "name",
          "type": "string"
        },
        {
          "internalType": "string",
          "name": "symbol",
          "type": "string"
        },
        {
          "internalType": "uint256",
          "name": "createdDate",
          "type": "uint256"
        },
        {
          "internalType": "uint256",
          "name": "apy",
          "type": "uint256"
        },
        {
          "internalType": "uint256",
          "name": "tokenQuantity",
          "type": "uint256"
        },
        {
          "internalType": "uint256",
          "name": "usdValue",
          "type": "uint256"
        },
        {
          "internalType": "uint256",
          "name": "ethValue",
          "type": "uint256"
        },
        {
          "internalType": "bool",
          "name": "open",
          "type": "bool"
        }
      ],
      "stateMutability": "view",
      "type": "function"
    },
    {
      "inputs": [
        {
          "internalType": "string",
          "name": "symbol",
          "type": "string"
        },
        {
          "internalType": "uint256",
          "name": "tokenQuantity",
          "type": "uint256"
        }
      ],
      "name": "stakeTokens",
      "outputs": [],
      "stateMutability": "nonpayable",
      "type": "function"
    },
    {
      "inputs": [
        {
          "internalType": "string",
          "name": "",
          "type": "string"
        }
      ],
      "name": "stakedTokens",
      "outputs": [
        {
          "internalType": "uint256",
          "name": "",
          "type": "uint256"
        }
      ],
      "stateMutability": "view",
      "type": "function"
    },
    {
      "inputs": [
        {
          "internalType": "uint256",
          "name": "",
          "type": "uint256"
        }
      ],
      "name": "tokenSymbols",
      "outputs": [
        {
          "internalType": "string",
          "name": "",
          "type": "string"
        }
      ],
      "stateMutability": "view",
      "type": "function"
    },
    {
      "inputs": [
        {
          "internalType": "string",
          "name": "",
          "type": "string"
        }
      ],
      "name": "tokens",
      "outputs": [
        {
          "internalType": "uint256",
          "name": "tokenId",
          "type": "uint256"
        },
        {
          "internalType": "string",
          "name": "name",
          "type": "string"
        },
        {
          "internalType": "string",
          "name": "symbol",
          "type": "string"
        },
        {
          "internalType": "address",
          "name": "tokenAddress",
          "type": "address"
        },
        {
          "internalType": "uint256",
          "name": "usdPrice",
          "type": "uint256"
        },
        {
          "internalType": "uint256",
          "name": "ethPrice",
          "type": "uint256"
        },
        {
          "internalType": "uint256",
          "name": "apy",
          "type": "uint256"
        }
      ],
      "stateMutability": "view",
      "type": "function"
    }
  ],
  "bytecode": "0x608060405260018055600160055560405162002c4e38038062002c4e833981810160405281019062000032919062000097565b80600281905550336000806101000a81548173ffffffffffffffffffffffffffffffffffffffff021916908373ffffffffffffffffffffffffffffffffffffffff16021790555050620000e7565b6000815190506200009181620000cd565b92915050565b600060208284031215620000aa57600080fd5b6000620000ba8482850162000080565b91505092915050565b6000819050919050565b620000d881620000c3565b8114620000e457600080fd5b50565b612b5780620000f76000396000f3fe608060405234801561001057600080fd5b50600436106101205760003560e01c80636e7ddea8116100ad57806399fbab881161007157806399fbab8814610323578063a126d6011461035c578063b838ec8614610378578063c1733f68146103a8578063c41cc502146103d857610120565b80636e7ddea81461027f57806371d772ca146102af5780638da5cb5b146102cb5780639478ab8c146102e957806394b308ab1461030757610120565b80631131c8cd116100f45780631131c8cd146101c75780632406b5c0146101e557806327f706551461021557806345eae373146102315780634b4ea9541461026157610120565b80629a9b7b1461012557806304c2320b1461014357806305b938161461017957806305e1bd8c14610197575b600080fd5b61012d610408565b60405161013a91906125d1565b60405180910390f35b61015d60048036038101906101589190611dbf565b61040e565b6040516101709796959493929190612696565b60405180910390f35b610181610596565b60405161018e91906124a7565b60405180910390f35b6101b160048036038101906101ac9190611e65565b61066f565b6040516101be91906125d1565b60405180910390f35b6101cf6106ab565b6040516101dc91906125d1565b60405180910390f35b6101ff60048036038101906101fa9190611e00565b6106b1565b60405161020c91906125d1565b60405180910390f35b61022f600480360381019061022a9190611e29565b6106e9565b005b61024b60048036038101906102469190611c0d565b610796565b60405161025891906125d1565b60405180910390f35b6102696107c7565b60405161027691906124c9565b60405180910390f35b61029960048036038101906102949190611e00565b61085c565b6040516102a691906124eb565b60405180910390f35b6102c960048036038101906102c49190611d67565b610908565b005b6102d3610dd3565b6040516102e0919061242c565b60405180910390f35b6102f1610df7565b6040516102fe91906125d1565b60405180910390f35b610321600480360381019061031c9190611cb7565b610dfd565b005b61033d60048036038101906103389190611e00565b611097565b6040516103539a999897969594939291906125ec565b60405180910390f35b61037660048036038101906103719190611e00565b611228565b005b610392600480360381019061038d9190611e00565b61152b565b60405161039f919061258d565b60405180910390f35b6103c260048036038101906103bd9190611c72565b61172a565b6040516103cf91906125af565b60405180910390f35b6103f260048036038101906103ed9190611dbf565b611907565b6040516103ff91906125d1565b60405180910390f35b60015481565b60048180516020810182018051848252602083016020850120818352809550505050505060009150905080600001549080600101805461044d906129dd565b80601f0160208091040260200160405190810160405280929190818152602001828054610479906129dd565b80156104c65780601f1061049b576101008083540402835291602001916104c6565b820191906000526020600020905b8154815290600101906020018083116104a957829003601f168201915b5050505050908060020180546104db906129dd565b80601f0160208091040260200160405190810160405280929190818152602001828054610507906129dd565b80156105545780601f1061052957610100808354040283529160200191610554565b820191906000526020600020905b81548152906001019060200180831161053757829003601f168201915b5050505050908060030160009054906101000a900473ffffffffffffffffffffffffffffffffffffffff16908060040154908060050154908060060154905087565b60606003805480602002602001604051908101604052809291908181526020016000905b828210156106665783829060005260206000200180546105d9906129dd565b80601f0160208091040260200160405190810160405280929190818152602001828054610605906129dd565b80156106525780601f1061062757610100808354040283529160200191610652565b820191906000526020600020905b81548152906001019060200180831161063557829003601f168201915b5050505050815260200190600101906105ba565b50505050905090565b600061016d61271083858761068491906128c5565b61068e91906128c5565b6106989190612894565b6106a29190612894565b90509392505050565b60055481565b60006018603c8084426106c4919061291f565b6106ce9190612894565b6106d89190612894565b6106e29190612894565b9050919050565b3373ffffffffffffffffffffffffffffffffffffffff1660008054906101000a900473ffffffffffffffffffffffffffffffffffffffff1673ffffffffffffffffffffffffffffffffffffffff1614610777576040517f08c379a000000000000000000000000000000000000000000000000000000000815260040161076e9061250d565b60405180910390fd5b8060066000848152602001908152602001600020600401819055505050565b600760205281600052604060002081815481106107b257600080fd5b90600052602060002001600091509150505481565b6060600760003373ffffffffffffffffffffffffffffffffffffffff1673ffffffffffffffffffffffffffffffffffffffff16815260200190815260200160002080548060200260200160405190810160405280929190818152602001828054801561085257602002820191906000526020600020905b81548152602001906001019080831161083e575b5050505050905090565b6003818154811061086c57600080fd5b906000526020600020016000915090508054610887906129dd565b80601f01602080910402602001604051908101604052809291908181526020018280546108b3906129dd565b80156109005780601f106108d557610100808354040283529160200191610900565b820191906000526020600020905b8154815290600101906020018083116108e357829003601f168201915b505050505081565b60006004848460405161091c9291906123e7565b908152602001604051809103902060000154141561096f576040517f08c379a00000000000000000000000000000000000000000000000000000000081526004016109669061254d565b60405180910390fd5b600483836040516109819291906123e7565b908152602001604051809103902060030160009054906101000a900473ffffffffffffffffffffffffffffffffffffffff1673ffffffffffffffffffffffffffffffffffffffff166323b872dd3330846040518463ffffffff1660e01b81526004016109ef93929190612447565b602060405180830381600087803b158015610a0957600080fd5b505af1158015610a1d573d6000803e3d6000fd5b505050506040513d601f19601f82011682018060405250810190610a419190611c49565b5060405180610140016040528060055481526020013373ffffffffffffffffffffffffffffffffffffffff16815260200160048585604051610a849291906123e7565b90815260200160405180910390206001018054610aa0906129dd565b80601f0160208091040260200160405190810160405280929190818152602001828054610acc906129dd565b8015610b195780601f10610aee57610100808354040283529160200191610b19565b820191906000526020600020905b815481529060010190602001808311610afc57829003601f168201915b5050505050815260200184848080601f016020809104026020016040519081016040528093929190818152602001838380828437600081840152601f19601f82011690508083019250505050505050815260200142815260200160048585604051610b859291906123e7565b90815260200160405180910390206006015481526020018281526020018260048686604051610bb59291906123e7565b908152602001604051809103902060040154610bd191906128c5565b81526020016002548360048787604051610bec9291906123e7565b908152602001604051809103902060040154610c0891906128c5565b610c129190612894565b8152602001600115158152506006600060055481526020019081526020016000206000820151816000015560208201518160010160006101000a81548173ffffffffffffffffffffffffffffffffffffffff021916908373ffffffffffffffffffffffffffffffffffffffff1602179055506040820151816002019080519060200190610ca0929190611935565b506060820151816003019080519060200190610cbd929190611935565b506080820151816004015560a0820151816005015560c0820151816006015560e0820151816007015561010082015181600801556101208201518160090160006101000a81548160ff021916908315150217905550905050600760003373ffffffffffffffffffffffffffffffffffffffff1673ffffffffffffffffffffffffffffffffffffffff1681526020019081526020016000206005549080600181540180825580915050600190039060005260206000200160009091909190915055600160056000828254610d90919061283e565b925050819055508060088484604051610daa9291906123e7565b90815260200160405180910390206000828254610dc7919061283e565b92505081905550505050565b60008054906101000a900473ffffffffffffffffffffffffffffffffffffffff1681565b60025481565b3373ffffffffffffffffffffffffffffffffffffffff1660008054906101000a900473ffffffffffffffffffffffffffffffffffffffff1673ffffffffffffffffffffffffffffffffffffffff1614610e8b576040517f08c379a0000000000000000000000000000000000000000000000000000000008152600401610e829061250d565b60405180910390fd5b6003858590918060018154018082558091505060019003906000526020600020016000909192909192909192909192509190610ec89291906119bb565b506040518060e00160405280600154815260200188888080601f016020809104026020016040519081016040528093929190818152602001838380828437600081840152601f19601f82011690508083019250505050505050815260200186868080601f016020809104026020016040519081016040528093929190818152602001838380828437600081840152601f19601f8201169050808301925050505050505081526020018473ffffffffffffffffffffffffffffffffffffffff16815260200183815260200160025484610fa09190612894565b81526020018281525060048686604051610fbb9291906123e7565b9081526020016040518091039020600082015181600001556020820151816001019080519060200190610fef929190611935565b50604082015181600201908051906020019061100c929190611935565b5060608201518160030160006101000a81548173ffffffffffffffffffffffffffffffffffffffff021916908373ffffffffffffffffffffffffffffffffffffffff1602179055506080820151816004015560a0820151816005015560c082015181600601559050506001806000828254611087919061283e565b9250508190555050505050505050565b60066020528060005260406000206000915090508060000154908060010160009054906101000a900473ffffffffffffffffffffffffffffffffffffffff16908060020180546110e6906129dd565b80601f0160208091040260200160405190810160405280929190818152602001828054611112906129dd565b801561115f5780601f106111345761010080835404028352916020019161115f565b820191906000526020600020905b81548152906001019060200180831161114257829003601f168201915b505050505090806003018054611174906129dd565b80601f01602080910402602001604051908101604052809291908181526020018280546111a0906129dd565b80156111ed5780601f106111c2576101008083540402835291602001916111ed565b820191906000526020600020905b8154815290600101906020018083116111d057829003601f168201915b5050505050908060040154908060050154908060060154908060070154908060080154908060090160009054906101000a900460ff1690508a565b3373ffffffffffffffffffffffffffffffffffffffff166006600083815260200190815260200160002060010160009054906101000a900473ffffffffffffffffffffffffffffffffffffffff1673ffffffffffffffffffffffffffffffffffffffff16146112cc576040517f08c379a00000000000000000000000000000000000000000000000000000000081526004016112c39061252d565b60405180910390fd5b600115156006600083815260200190815260200160002060090160009054906101000a900460ff16151514611336576040517f08c379a000000000000000000000000000000000000000000000000000000000815260040161132d9061256d565b60405180910390fd5b60006006600083815260200190815260200160002060090160006101000a81548160ff02191690831515021790555060046006600083815260200190815260200160002060030160405161138a9190612400565b908152602001604051809103902060030160009054906101000a900473ffffffffffffffffffffffffffffffffffffffff1673ffffffffffffffffffffffffffffffffffffffff1663a9059cbb3360066000858152602001908152602001600020600601546040518363ffffffff1660e01b815260040161140c92919061247e565b602060405180830381600087803b15801561142657600080fd5b505af115801561143a573d6000803e3d6000fd5b505050506040513d601f19601f8201168201806040525081019061145e9190611c49565b50600061148060066000848152602001908152602001600020600401546106b1565b905060006114bb600660008581526020019081526020016000206005015460066000868152602001908152602001600020600801548461066f565b90503373ffffffffffffffffffffffffffffffffffffffff16816040516114e190612417565b60006040518083038185875af1925050503d806000811461151e576040519150601f19603f3d011682016040523d82523d6000602084013e611523565b606091505b505050505050565b611533611a41565b6006600083815260200190815260200160002060405180610140016040529081600082015481526020016001820160009054906101000a900473ffffffffffffffffffffffffffffffffffffffff1673ffffffffffffffffffffffffffffffffffffffff1673ffffffffffffffffffffffffffffffffffffffff1681526020016002820180546115c2906129dd565b80601f01602080910402602001604051908101604052809291908181526020018280546115ee906129dd565b801561163b5780601f106116105761010080835404028352916020019161163b565b820191906000526020600020905b81548152906001019060200180831161161e57829003601f168201915b50505050508152602001600382018054611654906129dd565b80601f0160208091040260200160405190810160405280929190818152602001828054611680906129dd565b80156116cd5780601f106116a2576101008083540402835291602001916116cd565b820191906000526020600020905b8154815290600101906020018083116116b057829003601f168201915b5050505050815260200160048201548152602001600582015481526020016006820154815260200160078201548152602001600882015481526020016009820160009054906101000a900460ff1615151515815250509050919050565b611732611aac565b600483836040516117449291906123e7565b90815260200160405180910390206040518060e001604052908160008201548152602001600182018054611777906129dd565b80601f01602080910402602001604051908101604052809291908181526020018280546117a3906129dd565b80156117f05780601f106117c5576101008083540402835291602001916117f0565b820191906000526020600020905b8154815290600101906020018083116117d357829003601f168201915b50505050508152602001600282018054611809906129dd565b80601f0160208091040260200160405190810160405280929190818152602001828054611835906129dd565b80156118825780601f1061185757610100808354040283529160200191611882565b820191906000526020600020905b81548152906001019060200180831161186557829003601f168201915b505050505081526020016003820160009054906101000a900473ffffffffffffffffffffffffffffffffffffffff1673ffffffffffffffffffffffffffffffffffffffff1673ffffffffffffffffffffffffffffffffffffffff1681526020016004820154815260200160058201548152602001600682015481525050905092915050565b6008818051602081018201805184825260208301602085012081835280955050505050506000915090505481565b828054611941906129dd565b90600052602060002090601f01602090048101928261196357600085556119aa565b82601f1061197c57805160ff19168380011785556119aa565b828001600101855582156119aa579182015b828111156119a957825182559160200191906001019061198e565b5b5090506119b79190611aff565b5090565b8280546119c7906129dd565b90600052602060002090601f0160209004810192826119e95760008555611a30565b82601f10611a0257803560ff1916838001178555611a30565b82800160010185558215611a30579182015b82811115611a2f578235825591602001919060010190611a14565b5b509050611a3d9190611aff565b5090565b60405180610140016040528060008152602001600073ffffffffffffffffffffffffffffffffffffffff168152602001606081526020016060815260200160008152602001600081526020016000815260200160008152602001600081526020016000151581525090565b6040518060e00160405280600081526020016060815260200160608152602001600073ffffffffffffffffffffffffffffffffffffffff1681526020016000815260200160008152602001600081525090565b5b80821115611b18576000816000905550600101611b00565b5090565b6000611b2f611b2a84612744565b612713565b905082815260208101848484011115611b4757600080fd5b611b5284828561299b565b509392505050565b600081359050611b6981612adc565b92915050565b600081519050611b7e81612af3565b92915050565b60008083601f840112611b9657600080fd5b8235905067ffffffffffffffff811115611baf57600080fd5b602083019150836001820283011115611bc757600080fd5b9250929050565b600082601f830112611bdf57600080fd5b8135611bef848260208601611b1c565b91505092915050565b600081359050611c0781612b0a565b92915050565b60008060408385031215611c2057600080fd5b6000611c2e85828601611b5a565b9250506020611c3f85828601611bf8565b9150509250929050565b600060208284031215611c5b57600080fd5b6000611c6984828501611b6f565b91505092915050565b60008060208385031215611c8557600080fd5b600083013567ffffffffffffffff811115611c9f57600080fd5b611cab85828601611b84565b92509250509250929050565b600080600080600080600060a0888a031215611cd257600080fd5b600088013567ffffffffffffffff811115611cec57600080fd5b611cf88a828b01611b84565b9750975050602088013567ffffffffffffffff811115611d1757600080fd5b611d238a828b01611b84565b95509550506040611d368a828b01611b5a565b9350506060611d478a828b01611bf8565b9250506080611d588a828b01611bf8565b91505092959891949750929550565b600080600060408486031215611d7c57600080fd5b600084013567ffffffffffffffff811115611d9657600080fd5b611da286828701611b84565b93509350506020611db586828701611bf8565b9150509250925092565b600060208284031215611dd157600080fd5b600082013567ffffffffffffffff811115611deb57600080fd5b611df784828501611bce565b91505092915050565b600060208284031215611e1257600080fd5b6000611e2084828501611bf8565b91505092915050565b60008060408385031215611e3c57600080fd5b6000611e4a85828601611bf8565b9250506020611e5b85828601611bf8565b9150509250929050565b600080600060608486031215611e7a57600080fd5b6000611e8886828701611bf8565b9350506020611e9986828701611bf8565b9250506040611eaa86828701611bf8565b9150509250925092565b6000611ec08383612014565b905092915050565b6000611ed483836123c9565b60208301905092915050565b611ee981612953565b82525050565b611ef881612953565b82525050565b6000611f09826127a9565b611f1381856127e4565b935083602082028501611f2585612774565b8060005b85811015611f615784840389528151611f428582611eb4565b9450611f4d836127ca565b925060208a01995050600181019050611f29565b50829750879550505050505092915050565b6000611f7e826127b4565b611f8881856127f5565b9350611f9383612784565b8060005b83811015611fc4578151611fab8882611ec8565b9750611fb6836127d7565b925050600181019050611f97565b5085935050505092915050565b611fda81612965565b82525050565b611fe981612965565b82525050565b6000611ffb8385612833565b935061200883858461299b565b82840190509392505050565b600061201f826127bf565b6120298185612811565b93506120398185602086016129aa565b61204281612acb565b840191505092915050565b6000612058826127bf565b6120628185612822565b93506120728185602086016129aa565b61207b81612acb565b840191505092915050565b60008154612093816129dd565b61209d8186612833565b945060018216600081146120b857600181146120c9576120fc565b60ff198316865281860193506120fc565b6120d285612794565b60005b838110156120f4578154818901526001820191506020810190506120d5565b838801955050505b50505092915050565b6000612112602183612822565b91507f4f6e6c79206f776e6572206d61792063616c6c20746869732066756e6374696f60008301527f6e000000000000000000000000000000000000000000000000000000000000006020830152604082019050919050565b6000612178601e83612822565b91507f4e6f7420746865206f776e6572206f66207468697320706f736974696f6e00006000830152602082019050919050565b60006121b8600083612806565b9150600082019050919050565b60006121d2601b83612822565b91507f5468697320746f6b656e2063616e6e6f74206265207374616b656400000000006000830152602082019050919050565b6000612212601783612822565b91507f506f736974696f6e20616c726561647920636c6f7365640000000000000000006000830152602082019050919050565b60006101408301600083015161225e60008601826123c9565b5060208301516122716020860182611ee0565b50604083015184820360408601526122898282612014565b915050606083015184820360608601526122a38282612014565b91505060808301516122b860808601826123c9565b5060a08301516122cb60a08601826123c9565b5060c08301516122de60c08601826123c9565b5060e08301516122f160e08601826123c9565b506101008301516123066101008601826123c9565b5061012083015161231b610120860182611fd1565b508091505092915050565b600060e08301600083015161233e60008601826123c9565b50602083015184820360208601526123568282612014565b915050604083015184820360408601526123708282612014565b91505060608301516123856060860182611ee0565b50608083015161239860808601826123c9565b5060a08301516123ab60a08601826123c9565b5060c08301516123be60c08601826123c9565b508091505092915050565b6123d281612991565b82525050565b6123e181612991565b82525050565b60006123f4828486611fef565b91508190509392505050565b600061240c8284612086565b915081905092915050565b6000612422826121ab565b9150819050919050565b60006020820190506124416000830184611eef565b92915050565b600060608201905061245c6000830186611eef565b6124696020830185611eef565b61247660408301846123d8565b949350505050565b60006040820190506124936000830185611eef565b6124a060208301846123d8565b9392505050565b600060208201905081810360008301526124c18184611efe565b905092915050565b600060208201905081810360008301526124e38184611f73565b905092915050565b60006020820190508181036000830152612505818461204d565b905092915050565b6000602082019050818103600083015261252681612105565b9050919050565b600060208201905081810360008301526125468161216b565b9050919050565b60006020820190508181036000830152612566816121c5565b9050919050565b6000602082019050818103600083015261258681612205565b9050919050565b600060208201905081810360008301526125a78184612245565b905092915050565b600060208201905081810360008301526125c98184612326565b905092915050565b60006020820190506125e660008301846123d8565b92915050565b600061014082019050612602600083018d6123d8565b61260f602083018c611eef565b8181036040830152612621818b61204d565b90508181036060830152612635818a61204d565b905061264460808301896123d8565b61265160a08301886123d8565b61265e60c08301876123d8565b61266b60e08301866123d8565b6126796101008301856123d8565b612687610120830184611fe0565b9b9a5050505050505050505050565b600060e0820190506126ab600083018a6123d8565b81810360208301526126bd818961204d565b905081810360408301526126d1818861204d565b90506126e06060830187611eef565b6126ed60808301866123d8565b6126fa60a08301856123d8565b61270760c08301846123d8565b98975050505050505050565b6000604051905081810181811067ffffffffffffffff8211171561273a57612739612a9c565b5b8060405250919050565b600067ffffffffffffffff82111561275f5761275e612a9c565b5b601f19601f8301169050602081019050919050565b6000819050602082019050919050565b6000819050602082019050919050565b60008190508160005260206000209050919050565b600081519050919050565b600081519050919050565b600081519050919050565b6000602082019050919050565b6000602082019050919050565b600082825260208201905092915050565b600082825260208201905092915050565b600081905092915050565b600082825260208201905092915050565b600082825260208201905092915050565b600081905092915050565b600061284982612991565b915061285483612991565b9250827fffffffffffffffffffffffffffffffffffffffffffffffffffffffffffffffff0382111561288957612888612a0f565b5b828201905092915050565b600061289f82612991565b91506128aa83612991565b9250826128ba576128b9612a3e565b5b828204905092915050565b60006128d082612991565b91506128db83612991565b9250817fffffffffffffffffffffffffffffffffffffffffffffffffffffffffffffffff048311821515161561291457612913612a0f565b5b828202905092915050565b600061292a82612991565b915061293583612991565b92508282101561294857612947612a0f565b5b828203905092915050565b600061295e82612971565b9050919050565b60008115159050919050565b600073ffffffffffffffffffffffffffffffffffffffff82169050919050565b6000819050919050565b82818337600083830152505050565b60005b838110156129c85780820151818401526020810190506129ad565b838111156129d7576000848401525b50505050565b600060028204905060018216806129f557607f821691505b60208210811415612a0957612a08612a6d565b5b50919050565b7f4e487b7100000000000000000000000000000000000000000000000000000000600052601160045260246000fd5b7f4e487b7100000000000000000000000000000000000000000000000000000000600052601260045260246000fd5b7f4e487b7100000000000000000000000000000000000000000000000000000000600052602260045260246000fd5b7f4e487b7100000000000000000000000000000000000000000000000000000000600052604160045260246000fd5b6000601f19601f8301169050919050565b612ae581612953565b8114612af057600080fd5b50565b612afc81612965565b8114612b0757600080fd5b50565b612b1381612991565b8114612b1e57600080fd5b5056fea26469706673582212200ddd045a2f3ba6f124014bbb307861946e476157cce32ab021f7d07ebfd0c63664736f6c63430008000033",
  "linkReferences": {},
  "deployedLinkReferences": {}
}