{
  "_format": "hh-sol-artifact-1",
  "contractName": "ERC20PresetFixedSupply",
  "sourceName": "contracts/ERC20/presets/ERC20PresetFixedSupply.sol",
  "abi": [
    {
      "inputs": [
        {
          "internalType": "string",
          "name": "name",
          "type": "string"
        },
        {
          "internalType": "string",
          "name": "symbol",
          "type": "string"
        },
        {
          "internalType": "uint256",
          "name": "initialSupply",
          "type": "uint256"
        },
        {
          "internalType": "address",
          "name": "owner",
          "type": "address"
        }
      ],
      "stateMutability": "nonpayable",
      "type": "constructor"
    },
    {
      "anonymous": false,
      "inputs": [
        {
          "indexed": true,
          "internalType": "address",
          "name": "owner",
          "type": "address"
        },
        {
          "indexed": true,
          "internalType": "address",
          "name": "spender",
          "type": "address"
        },
        {
          "indexed": false,
          "internalType": "uint256",
          "name": "value",
          "type": "uint256"
        }
      ],
      "name": "Approval",
      "type": "event"
    },
    {
      "anonymous": false,
      "inputs": [
        {
          "indexed": true,
          "internalType": "address",
          "name": "from",
          "type": "address"
        },
        {
          "indexed": true,
          "internalType": "address",
          "name": "to",
          "type": "address"
        },
        {
          "indexed": false,
          "internalType": "uint256",
          "name": "value",
          "type": "uint256"
        }
      ],
      "name": "Transfer",
      "type": "event"
    },
    {
      "inputs": [
        {
          "internalType": "address",
          "name": "owner",
          "type": "address"
        },
        {
          "internalType": "address",
          "name": "spender",
          "type": "address"
        }
      ],
      "name": "allowance",
      "outputs": [
        {
          "internalType": "uint256",
          "name": "",
          "type": "uint256"
        }
      ],
      "stateMutability": "view",
      "type": "function"
    },
    {
      "inputs": [
        {
          "internalType": "address",
          "name": "spender",
          "type": "address"
        },
        {
          "internalType": "uint256",
          "name": "amount",
          "type": "uint256"
        }
      ],
      "name": "approve",
      "outputs": [
        {
          "internalType": "bool",
          "name": "",
          "type": "bool"
        }
      ],
      "stateMutability": "nonpayable",
      "type": "function"
    },
    {
      "inputs": [
        {
          "internalType": "address",
          "name": "account",
          "type": "address"
        }
      ],
      "name": "balanceOf",
      "outputs": [
        {
          "internalType": "uint256",
          "name": "",
          "type": "uint256"
        }
      ],
      "stateMutability": "view",
      "type": "function"
    },
    {
      "inputs": [
        {
          "internalType": "uint256",
          "name": "amount",
          "type": "uint256"
        }
      ],
      "name": "burn",
      "outputs": [],
      "stateMutability": "nonpayable",
      "type": "function"
    },
    {
      "inputs": [
        {
          "internalType": "address",
          "name": "account",
          "type": "address"
        },
        {
          "internalType": "uint256",
          "name": "amount",
          "type": "uint256"
        }
      ],
      "name": "burnFrom",
      "outputs": [],
      "stateMutability": "nonpayable",
      "type": "function"
    },
    {
      "inputs": [],
      "name": "decimals",
      "outputs": [
        {
          "internalType": "uint8",
          "name": "",
          "type": "uint8"
        }
      ],
      "stateMutability": "view",
      "type": "function"
    },
    {
      "inputs": [
        {
          "internalType": "address",
          "name": "spender",
          "type": "address"
        },
        {
          "internalType": "uint256",
          "name": "subtractedValue",
          "type": "uint256"
        }
      ],
      "name": "decreaseAllowance",
      "outputs": [
        {
          "internalType": "bool",
          "name": "",
          "type": "bool"
        }
      ],
      "stateMutability": "nonpayable",
      "type": "function"
    },
    {
      "inputs": [
        {
          "internalType": "address",
          "name": "spender",
          "type": "address"
        },
        {
          "internalType": "uint256",
          "name": "addedValue",
          "type": "uint256"
        }
      ],
      "name": "increaseAllowance",
      "outputs": [
        {
          "internalType": "bool",
          "name": "",
          "type": "bool"
        }
      ],
      "stateMutability": "nonpayable",
      "type": "function"
    },
    {
      "inputs": [],
      "name": "name",
      "outputs": [
        {
          "internalType": "string",
          "name": "",
          "type": "string"
        }
      ],
      "stateMutability": "view",
      "type": "function"
    },
    {
      "inputs": [],
      "name": "symbol",
      "outputs": [
        {
          "internalType": "string",
          "name": "",
          "type": "string"
        }
      ],
      "stateMutability": "view",
      "type": "function"
    },
    {
      "inputs": [],
      "name": "totalSupply",
      "outputs": [
        {
          "internalType": "uint256",
          "name": "",
          "type": "uint256"
        }
      ],
      "stateMutability": "view",
      "type": "function"
    },
    {
      "inputs": [
        {
          "internalType": "address",
          "name": "recipient",
          "type": "address"
        },
        {
          "internalType": "uint256",
          "name": "amount",
          "type": "uint256"
        }
      ],
      "name": "transfer",
      "outputs": [
        {
          "internalType": "bool",
          "name": "",
          "type": "bool"
        }
      ],
      "stateMutability": "nonpayable",
      "type": "function"
    },
    {
      "inputs": [
        {
          "internalType": "address",
          "name": "sender",
          "type": "address"
        },
        {
          "internalType": "address",
          "name": "recipient",
          "type": "address"
        },
        {
          "internalType": "uint256",
          "name": "amount",
          "type": "uint256"
        }
      ],
      "name": "transferFrom",
      "outputs": [
        {
          "internalType": "bool",
          "name": "",
          "type": "bool"
        }
      ],
      "stateMutability": "nonpayable",
      "type": "function"
    }
  ],
  "bytecode": "0x60806040523480156200001157600080fd5b5060405162001ecc38038062001ecc83398181016040528101906200003791906200035c565b83838160039080519060200190620000519291906200020c565b5080600490805190602001906200006a9291906200020c565b5050506200007f81836200008960201b60201c565b50505050620006cc565b600073ffffffffffffffffffffffffffffffffffffffff168273ffffffffffffffffffffffffffffffffffffffff161415620000fc576040517f08c379a0000000000000000000000000000000000000000000000000000000008152600401620000f3906200044d565b60405180910390fd5b62000110600083836200020260201b60201c565b806002600082825462000124919062000504565b92505081905550806000808473ffffffffffffffffffffffffffffffffffffffff1673ffffffffffffffffffffffffffffffffffffffff16815260200190815260200160002060008282546200017b919062000504565b925050819055508173ffffffffffffffffffffffffffffffffffffffff16600073ffffffffffffffffffffffffffffffffffffffff167fddf252ad1be2c89b69c2b068fc378daa952ba7f163c4a11628f55a4df523b3ef83604051620001e291906200046f565b60405180910390a3620001fe600083836200020760201b60201c565b5050565b505050565b505050565b8280546200021a90620005d5565b90600052602060002090601f0160209004810192826200023e57600085556200028a565b82601f106200025957805160ff19168380011785556200028a565b828001600101855582156200028a579182015b82811115620002895782518255916020019190600101906200026c565b5b5090506200029991906200029d565b5090565b5b80821115620002b85760008160009055506001016200029e565b5090565b6000620002d3620002cd84620004c0565b6200048c565b905082815260208101848484011115620002ec57600080fd5b620002f98482856200059f565b509392505050565b600081519050620003128162000698565b92915050565b600082601f8301126200032a57600080fd5b81516200033c848260208601620002bc565b91505092915050565b6000815190506200035681620006b2565b92915050565b600080600080608085870312156200037357600080fd5b600085015167ffffffffffffffff8111156200038e57600080fd5b6200039c8782880162000318565b945050602085015167ffffffffffffffff811115620003ba57600080fd5b620003c88782880162000318565b9350506040620003db8782880162000345565b9250506060620003ee8782880162000301565b91505092959194509250565b600062000409601f83620004f3565b91507f45524332303a206d696e7420746f20746865207a65726f2061646472657373006000830152602082019050919050565b620004478162000595565b82525050565b600060208201905081810360008301526200046881620003fa565b9050919050565b60006020820190506200048660008301846200043c565b92915050565b6000604051905081810181811067ffffffffffffffff82111715620004b657620004b562000669565b5b8060405250919050565b600067ffffffffffffffff821115620004de57620004dd62000669565b5b601f19601f8301169050602081019050919050565b600082825260208201905092915050565b6000620005118262000595565b91506200051e8362000595565b9250827fffffffffffffffffffffffffffffffffffffffffffffffffffffffffffffffff038211156200055657620005556200060b565b5b828201905092915050565b60006200056e8262000575565b9050919050565b600073ffffffffffffffffffffffffffffffffffffffff82169050919050565b6000819050919050565b60005b83811015620005bf578082015181840152602081019050620005a2565b83811115620005cf576000848401525b50505050565b60006002820490506001821680620005ee57607f821691505b602082108114156200060557620006046200063a565b5b50919050565b7f4e487b7100000000000000000000000000000000000000000000000000000000600052601160045260246000fd5b7f4e487b7100000000000000000000000000000000000000000000000000000000600052602260045260246000fd5b7f4e487b7100000000000000000000000000000000000000000000000000000000600052604160045260246000fd5b620006a38162000561565b8114620006af57600080fd5b50565b620006bd8162000595565b8114620006c957600080fd5b50565b6117f080620006dc6000396000f3fe608060405234801561001057600080fd5b50600436106100cf5760003560e01c806342966c681161008c57806395d89b411161006657806395d89b4114610226578063a457c2d714610244578063a9059cbb14610274578063dd62ed3e146102a4576100cf565b806342966c68146101be57806370a08231146101da57806379cc67901461020a576100cf565b806306fdde03146100d4578063095ea7b3146100f257806318160ddd1461012257806323b872dd14610140578063313ce56714610170578063395093511461018e575b600080fd5b6100dc6102d4565b6040516100e99190611425565b60405180910390f35b61010c60048036038101906101079190610f43565b610366565b604051610119919061140a565b60405180910390f35b61012a610384565b6040516101379190611587565b60405180910390f35b61015a60048036038101906101559190610ef4565b61038e565b604051610167919061140a565b60405180910390f35b610178610486565b60405161018591906115a2565b60405180910390f35b6101a860048036038101906101a39190610f43565b61048b565b6040516101b5919061140a565b60405180910390f35b6101d860048036038101906101d39190610f7f565b610537565b005b6101f460048036038101906101ef9190610e8f565b61054b565b6040516102019190611587565b60405180910390f35b610224600480360381019061021f9190610f43565b610593565b005b61022e61060e565b60405161023b9190611425565b60405180910390f35b61025e60048036038101906102599190610f43565b6106a0565b60405161026b919061140a565b60405180910390f35b61028e60048036038101906102899190610f43565b61078b565b60405161029b919061140a565b60405180910390f35b6102be60048036038101906102b99190610eb8565b6107a9565b6040516102cb9190611587565b60405180910390f35b6060600380546102e3906116eb565b80601f016020809104026020016040519081016040528092919081815260200182805461030f906116eb565b801561035c5780601f106103315761010080835404028352916020019161035c565b820191906000526020600020905b81548152906001019060200180831161033f57829003601f168201915b5050505050905090565b600061037a610373610830565b8484610838565b6001905092915050565b6000600254905090565b600061039b848484610a03565b6000600160008673ffffffffffffffffffffffffffffffffffffffff1673ffffffffffffffffffffffffffffffffffffffff16815260200190815260200160002060006103e6610830565b73ffffffffffffffffffffffffffffffffffffffff1673ffffffffffffffffffffffffffffffffffffffff16815260200190815260200160002054905082811015610466576040517f08c379a000000000000000000000000000000000000000000000000000000000815260040161045d906114c7565b60405180910390fd5b61047a85610472610830565b858403610838565b60019150509392505050565b600090565b600061052d610498610830565b8484600160006104a6610830565b73ffffffffffffffffffffffffffffffffffffffff1673ffffffffffffffffffffffffffffffffffffffff16815260200190815260200160002060008873ffffffffffffffffffffffffffffffffffffffff1673ffffffffffffffffffffffffffffffffffffffff1681526020019081526020016000205461052891906115d9565b610838565b6001905092915050565b610548610542610830565b82610c84565b50565b60008060008373ffffffffffffffffffffffffffffffffffffffff1673ffffffffffffffffffffffffffffffffffffffff168152602001908152602001600020549050919050565b60006105a6836105a1610830565b6107a9565b9050818110156105eb576040517f08c379a00000000000000000000000000000000000000000000000000000000081526004016105e2906114e7565b60405180910390fd5b6105ff836105f7610830565b848403610838565b6106098383610c84565b505050565b60606004805461061d906116eb565b80601f0160208091040260200160405190810160405280929190818152602001828054610649906116eb565b80156106965780601f1061066b57610100808354040283529160200191610696565b820191906000526020600020905b81548152906001019060200180831161067957829003601f168201915b5050505050905090565b600080600160006106af610830565b73ffffffffffffffffffffffffffffffffffffffff1673ffffffffffffffffffffffffffffffffffffffff16815260200190815260200160002060008573ffffffffffffffffffffffffffffffffffffffff1673ffffffffffffffffffffffffffffffffffffffff1681526020019081526020016000205490508281101561076c576040517f08c379a000000000000000000000000000000000000000000000000000000000815260040161076390611567565b60405180910390fd5b610780610777610830565b85858403610838565b600191505092915050565b600061079f610798610830565b8484610a03565b6001905092915050565b6000600160008473ffffffffffffffffffffffffffffffffffffffff1673ffffffffffffffffffffffffffffffffffffffff16815260200190815260200160002060008373ffffffffffffffffffffffffffffffffffffffff1673ffffffffffffffffffffffffffffffffffffffff16815260200190815260200160002054905092915050565b600033905090565b600073ffffffffffffffffffffffffffffffffffffffff168373ffffffffffffffffffffffffffffffffffffffff1614156108a8576040517f08c379a000000000000000000000000000000000000000000000000000000000815260040161089f90611547565b60405180910390fd5b600073ffffffffffffffffffffffffffffffffffffffff168273ffffffffffffffffffffffffffffffffffffffff161415610918576040517f08c379a000000000000000000000000000000000000000000000000000000000815260040161090f90611487565b60405180910390fd5b80600160008573ffffffffffffffffffffffffffffffffffffffff1673ffffffffffffffffffffffffffffffffffffffff16815260200190815260200160002060008473ffffffffffffffffffffffffffffffffffffffff1673ffffffffffffffffffffffffffffffffffffffff168152602001908152602001600020819055508173ffffffffffffffffffffffffffffffffffffffff168373ffffffffffffffffffffffffffffffffffffffff167f8c5be1e5ebec7d5bd14f71427d1e84f3dd0314c0f7b2291e5b200ac8c7c3b925836040516109f69190611587565b60405180910390a3505050565b600073ffffffffffffffffffffffffffffffffffffffff168373ffffffffffffffffffffffffffffffffffffffff161415610a73576040517f08c379a0000000000000000000000000000000000000000000000000000000008152600401610a6a90611527565b60405180910390fd5b600073ffffffffffffffffffffffffffffffffffffffff168273ffffffffffffffffffffffffffffffffffffffff161415610ae3576040517f08c379a0000000000000000000000000000000000000000000000000000000008152600401610ada90611447565b60405180910390fd5b610aee838383610e5b565b60008060008573ffffffffffffffffffffffffffffffffffffffff1673ffffffffffffffffffffffffffffffffffffffff16815260200190815260200160002054905081811015610b74576040517f08c379a0000000000000000000000000000000000000000000000000000000008152600401610b6b906114a7565b60405180910390fd5b8181036000808673ffffffffffffffffffffffffffffffffffffffff1673ffffffffffffffffffffffffffffffffffffffff16815260200190815260200160002081905550816000808573ffffffffffffffffffffffffffffffffffffffff1673ffffffffffffffffffffffffffffffffffffffff1681526020019081526020016000206000828254610c0791906115d9565b925050819055508273ffffffffffffffffffffffffffffffffffffffff168473ffffffffffffffffffffffffffffffffffffffff167fddf252ad1be2c89b69c2b068fc378daa952ba7f163c4a11628f55a4df523b3ef84604051610c6b9190611587565b60405180910390a3610c7e848484610e60565b50505050565b600073ffffffffffffffffffffffffffffffffffffffff168273ffffffffffffffffffffffffffffffffffffffff161415610cf4576040517f08c379a0000000000000000000000000000000000000000000000000000000008152600401610ceb90611507565b60405180910390fd5b610d0082600083610e5b565b60008060008473ffffffffffffffffffffffffffffffffffffffff1673ffffffffffffffffffffffffffffffffffffffff16815260200190815260200160002054905081811015610d86576040517f08c379a0000000000000000000000000000000000000000000000000000000008152600401610d7d90611467565b60405180910390fd5b8181036000808573ffffffffffffffffffffffffffffffffffffffff1673ffffffffffffffffffffffffffffffffffffffff168152602001908152602001600020819055508160026000828254610ddd919061162f565b92505081905550600073ffffffffffffffffffffffffffffffffffffffff168373ffffffffffffffffffffffffffffffffffffffff167fddf252ad1be2c89b69c2b068fc378daa952ba7f163c4a11628f55a4df523b3ef84604051610e429190611587565b60405180910390a3610e5683600084610e60565b505050565b505050565b505050565b600081359050610e748161178c565b92915050565b600081359050610e89816117a3565b92915050565b600060208284031215610ea157600080fd5b6000610eaf84828501610e65565b91505092915050565b60008060408385031215610ecb57600080fd5b6000610ed985828601610e65565b9250506020610eea85828601610e65565b9150509250929050565b600080600060608486031215610f0957600080fd5b6000610f1786828701610e65565b9350506020610f2886828701610e65565b9250506040610f3986828701610e7a565b9150509250925092565b60008060408385031215610f5657600080fd5b6000610f6485828601610e65565b9250506020610f7585828601610e7a565b9150509250929050565b600060208284031215610f9157600080fd5b6000610f9f84828501610e7a565b91505092915050565b610fb181611675565b82525050565b6000610fc2826115bd565b610fcc81856115c8565b9350610fdc8185602086016116b8565b610fe58161177b565b840191505092915050565b6000610ffd6023836115c8565b91507f45524332303a207472616e7366657220746f20746865207a65726f206164647260008301527f65737300000000000000000000000000000000000000000000000000000000006020830152604082019050919050565b60006110636022836115c8565b91507f45524332303a206275726e20616d6f756e7420657863656564732062616c616e60008301527f63650000000000000000000000000000000000000000000000000000000000006020830152604082019050919050565b60006110c96022836115c8565b91507f45524332303a20617070726f766520746f20746865207a65726f20616464726560008301527f73730000000000000000000000000000000000000000000000000000000000006020830152604082019050919050565b600061112f6026836115c8565b91507f45524332303a207472616e7366657220616d6f756e742065786365656473206260008301527f616c616e636500000000000000000000000000000000000000000000000000006020830152604082019050919050565b60006111956028836115c8565b91507f45524332303a207472616e7366657220616d6f756e742065786365656473206160008301527f6c6c6f77616e63650000000000000000000000000000000000000000000000006020830152604082019050919050565b60006111fb6024836115c8565b91507f45524332303a206275726e20616d6f756e74206578636565647320616c6c6f7760008301527f616e6365000000000000000000000000000000000000000000000000000000006020830152604082019050919050565b60006112616021836115c8565b91507f45524332303a206275726e2066726f6d20746865207a65726f2061646472657360008301527f73000000000000000000000000000000000000000000000000000000000000006020830152604082019050919050565b60006112c76025836115c8565b91507f45524332303a207472616e736665722066726f6d20746865207a65726f20616460008301527f64726573730000000000000000000000000000000000000000000000000000006020830152604082019050919050565b600061132d6024836115c8565b91507f45524332303a20617070726f76652066726f6d20746865207a65726f2061646460008301527f72657373000000000000000000000000000000000000000000000000000000006020830152604082019050919050565b60006113936025836115c8565b91507f45524332303a2064656372656173656420616c6c6f77616e63652062656c6f7760008301527f207a65726f0000000000000000000000000000000000000000000000000000006020830152604082019050919050565b6113f5816116a1565b82525050565b611404816116ab565b82525050565b600060208201905061141f6000830184610fa8565b92915050565b6000602082019050818103600083015261143f8184610fb7565b905092915050565b6000602082019050818103600083015261146081610ff0565b9050919050565b6000602082019050818103600083015261148081611056565b9050919050565b600060208201905081810360008301526114a0816110bc565b9050919050565b600060208201905081810360008301526114c081611122565b9050919050565b600060208201905081810360008301526114e081611188565b9050919050565b60006020820190508181036000830152611500816111ee565b9050919050565b6000602082019050818103600083015261152081611254565b9050919050565b60006020820190508181036000830152611540816112ba565b9050919050565b6000602082019050818103600083015261156081611320565b9050919050565b6000602082019050818103600083015261158081611386565b9050919050565b600060208201905061159c60008301846113ec565b92915050565b60006020820190506115b760008301846113fb565b92915050565b600081519050919050565b600082825260208201905092915050565b60006115e4826116a1565b91506115ef836116a1565b9250827fffffffffffffffffffffffffffffffffffffffffffffffffffffffffffffffff038211156116245761162361171d565b5b828201905092915050565b600061163a826116a1565b9150611645836116a1565b9250828210156116585761165761171d565b5b828203905092915050565b600061166e82611681565b9050919050565b60008115159050919050565b600073ffffffffffffffffffffffffffffffffffffffff82169050919050565b6000819050919050565b600060ff82169050919050565b60005b838110156116d65780820151818401526020810190506116bb565b838111156116e5576000848401525b50505050565b6000600282049050600182168061170357607f821691505b602082108114156117175761171661174c565b5b50919050565b7f4e487b7100000000000000000000000000000000000000000000000000000000600052601160045260246000fd5b7f4e487b7100000000000000000000000000000000000000000000000000000000600052602260045260246000fd5b6000601f19601f8301169050919050565b61179581611663565b81146117a057600080fd5b50565b6117ac816116a1565b81146117b757600080fd5b5056fea26469706673582212207bc9f41de53210debdec5c726b03bab56fb4b871329358005dcf157746dd110c64736f6c63430008000033",
  "linkReferences": {},
  "deployedLinkReferences": {}
}