{
  "_format": "hh-sol-artifact-1",
  "contractName": "RefundEscrow",
  "sourceName": "contracts/utils/escrow/RefundEscrow.sol",
  "abi": [
    {
      "inputs": [
        {
          "internalType": "address payable",
          "name": "beneficiary_",
          "type": "address"
        }
      ],
      "stateMutability": "nonpayable",
      "type": "constructor"
    },
    {
      "anonymous": false,
      "inputs": [
        {
          "indexed": true,
          "internalType": "address",
          "name": "payee",
          "type": "address"
        },
        {
          "indexed": false,
          "internalType": "uint256",
          "name": "weiAmount",
          "type": "uint256"
        }
      ],
      "name": "Deposited",
      "type": "event"
    },
    {
      "anonymous": false,
      "inputs": [
        {
          "indexed": true,
          "internalType": "address",
          "name": "previousOwner",
          "type": "address"
        },
        {
          "indexed": true,
          "internalType": "address",
          "name": "newOwner",
          "type": "address"
        }
      ],
      "name": "OwnershipTransferred",
      "type": "event"
    },
    {
      "anonymous": false,
      "inputs": [],
      "name": "RefundsClosed",
      "type": "event"
    },
    {
      "anonymous": false,
      "inputs": [],
      "name": "RefundsEnabled",
      "type": "event"
    },
    {
      "anonymous": false,
      "inputs": [
        {
          "indexed": true,
          "internalType": "address",
          "name": "payee",
          "type": "address"
        },
        {
          "indexed": false,
          "internalType": "uint256",
          "name": "weiAmount",
          "type": "uint256"
        }
      ],
      "name": "Withdrawn",
      "type": "event"
    },
    {
      "inputs": [],
      "name": "beneficiary",
      "outputs": [
        {
          "internalType": "address payable",
          "name": "",
          "type": "address"
        }
      ],
      "stateMutability": "view",
      "type": "function"
    },
    {
      "inputs": [],
      "name": "beneficiaryWithdraw",
      "outputs": [],
      "stateMutability": "nonpayable",
      "type": "function"
    },
    {
      "inputs": [],
      "name": "close",
      "outputs": [],
      "stateMutability": "nonpayable",
      "type": "function"
    },
    {
      "inputs": [
        {
          "internalType": "address",
          "name": "refundee",
          "type": "address"
        }
      ],
      "name": "deposit",
      "outputs": [],
      "stateMutability": "payable",
      "type": "function"
    },
    {
      "inputs": [
        {
          "internalType": "address",
          "name": "payee",
          "type": "address"
        }
      ],
      "name": "depositsOf",
      "outputs": [
        {
          "internalType": "uint256",
          "name": "",
          "type": "uint256"
        }
      ],
      "stateMutability": "view",
      "type": "function"
    },
    {
      "inputs": [],
      "name": "enableRefunds",
      "outputs": [],
      "stateMutability": "nonpayable",
      "type": "function"
    },
    {
      "inputs": [],
      "name": "owner",
      "outputs": [
        {
          "internalType": "address",
          "name": "",
          "type": "address"
        }
      ],
      "stateMutability": "view",
      "type": "function"
    },
    {
      "inputs": [],
      "name": "renounceOwnership",
      "outputs": [],
      "stateMutability": "nonpayable",
      "type": "function"
    },
    {
      "inputs": [],
      "name": "state",
      "outputs": [
        {
          "internalType": "enum RefundEscrow.State",
          "name": "",
          "type": "uint8"
        }
      ],
      "stateMutability": "view",
      "type": "function"
    },
    {
      "inputs": [
        {
          "internalType": "address",
          "name": "newOwner",
          "type": "address"
        }
      ],
      "name": "transferOwnership",
      "outputs": [],
      "stateMutability": "nonpayable",
      "type": "function"
    },
    {
      "inputs": [
        {
          "internalType": "address payable",
          "name": "payee",
          "type": "address"
        }
      ],
      "name": "withdraw",
      "outputs": [],
      "stateMutability": "nonpayable",
      "type": "function"
    },
    {
      "inputs": [
        {
          "internalType": "address",
          "name": "",
          "type": "address"
        }
      ],
      "name": "withdrawalAllowed",
      "outputs": [
        {
          "internalType": "bool",
          "name": "",
          "type": "bool"
        }
      ],
      "stateMutability": "view",
      "type": "function"
    }
  ],
  "bytecode": "0x60a06040523480156200001157600080fd5b5060405162001a1c38038062001a1c83398181016040528101906200003791906200023d565b620000576200004b6200015a60201b60201c565b6200016260201b60201c565b600073ffffffffffffffffffffffffffffffffffffffff168173ffffffffffffffffffffffffffffffffffffffff161415620000ca576040517f08c379a0000000000000000000000000000000000000000000000000000000008152600401620000c190620002d1565b60405180910390fd5b8073ffffffffffffffffffffffffffffffffffffffff1660808173ffffffffffffffffffffffffffffffffffffffff1660601b815250506000600260006101000a81548160ff021916908360028111156200014e577f4e487b7100000000000000000000000000000000000000000000000000000000600052602160045260246000fd5b02179055505062000352565b600033905090565b60008060009054906101000a900473ffffffffffffffffffffffffffffffffffffffff169050816000806101000a81548173ffffffffffffffffffffffffffffffffffffffff021916908373ffffffffffffffffffffffffffffffffffffffff1602179055508173ffffffffffffffffffffffffffffffffffffffff168173ffffffffffffffffffffffffffffffffffffffff167f8be0079c531659141344cd1fd0a4f28419497f9722a3daafe3b4186f6b6457e060405160405180910390a35050565b600081519050620002378162000338565b92915050565b6000602082840312156200025057600080fd5b6000620002608482850162000226565b91505092915050565b600062000278602d83620002f3565b91507f526566756e64457363726f773a2062656e65666963696172792069732074686560008301527f207a65726f2061646472657373000000000000000000000000000000000000006020830152604082019050919050565b60006020820190508181036000830152620002ec8162000269565b9050919050565b600082825260208201905092915050565b6000620003118262000318565b9050919050565b600073ffffffffffffffffffffffffffffffffffffffff82169050919050565b620003438162000304565b81146200034f57600080fd5b50565b60805160601c6116ab62000371600039600061027501526116ab6000f3fe6080604052600436106100a75760003560e01c80638da5cb5b116100645780638da5cb5b146101825780639af6549a146101ad578063c19d93fb146101c4578063e3a9db1a146101ef578063f2fde38b1461022c578063f340fa0114610255576100a7565b806338af3eed146100ac57806343d726d6146100d757806351cff8d9146100ee578063685ca19414610117578063715018a6146101545780638c52dc411461016b575b600080fd5b3480156100b857600080fd5b506100c1610271565b6040516100ce9190611358565b60405180910390f35b3480156100e357600080fd5b506100ec610299565b005b3480156100fa57600080fd5b5061011560048036038101906101109190610f50565b61044d565b005b34801561012357600080fd5b5061013e60048036038101906101399190610f27565b6104a1565b60405161014b9190611373565b60405180910390f35b34801561016057600080fd5b50610169610525565b005b34801561017757600080fd5b506101806105ad565b005b34801561018e57600080fd5b50610197610762565b6040516101a4919061133d565b60405180910390f35b3480156101b957600080fd5b506101c261078b565b005b3480156101d057600080fd5b506101d9610876565b6040516101e6919061138e565b60405180910390f35b3480156101fb57600080fd5b5061021660048036038101906102119190610f27565b61088d565b60405161022391906114c9565b60405180910390f35b34801561023857600080fd5b50610253600480360381019061024e9190610f27565b6108d6565b005b61026f600480360381019061026a9190610f27565b6109ce565b005b60007f0000000000000000000000000000000000000000000000000000000000000000905090565b6102a1610a94565b73ffffffffffffffffffffffffffffffffffffffff166102bf610762565b73ffffffffffffffffffffffffffffffffffffffff1614610315576040517f08c379a000000000000000000000000000000000000000000000000000000000815260040161030c90611489565b60405180910390fd5b6000600281111561034f577f4e487b7100000000000000000000000000000000000000000000000000000000600052602160045260246000fd5b610357610876565b600281111561038f577f4e487b7100000000000000000000000000000000000000000000000000000000600052602160045260246000fd5b146103cf576040517f08c379a00000000000000000000000000000000000000000000000000000000081526004016103c690611469565b60405180910390fd5b60028060006101000a81548160ff0219169083600281111561041a577f4e487b7100000000000000000000000000000000000000000000000000000000600052602160045260246000fd5b02179055507f088672c3a6e342f7cd94a65ba63b79df24a8973927b4d05d803c44bbf787d12f60405160405180910390a1565b610456816104a1565b610495576040517f08c379a000000000000000000000000000000000000000000000000000000000815260040161048c90611449565b60405180910390fd5b61049e81610a9c565b50565b6000600160028111156104dd577f4e487b7100000000000000000000000000000000000000000000000000000000600052602160045260246000fd5b6104e5610876565b600281111561051d577f4e487b7100000000000000000000000000000000000000000000000000000000600052602160045260246000fd5b149050919050565b61052d610a94565b73ffffffffffffffffffffffffffffffffffffffff1661054b610762565b73ffffffffffffffffffffffffffffffffffffffff16146105a1576040517f08c379a000000000000000000000000000000000000000000000000000000000815260040161059890611489565b60405180910390fd5b6105ab6000610c1c565b565b6105b5610a94565b73ffffffffffffffffffffffffffffffffffffffff166105d3610762565b73ffffffffffffffffffffffffffffffffffffffff1614610629576040517f08c379a000000000000000000000000000000000000000000000000000000000815260040161062090611489565b60405180910390fd5b60006002811115610663577f4e487b7100000000000000000000000000000000000000000000000000000000600052602160045260246000fd5b61066b610876565b60028111156106a3577f4e487b7100000000000000000000000000000000000000000000000000000000600052602160045260246000fd5b146106e3576040517f08c379a00000000000000000000000000000000000000000000000000000000081526004016106da906114a9565b60405180910390fd5b6001600260006101000a81548160ff0219169083600281111561072f577f4e487b7100000000000000000000000000000000000000000000000000000000600052602160045260246000fd5b02179055507f599d8e5a83cffb867d051598c4d70e805d59802d8081c1c7d6dffc5b6aca2b8960405160405180910390a1565b60008060009054906101000a900473ffffffffffffffffffffffffffffffffffffffff16905090565b6002808111156107c4577f4e487b7100000000000000000000000000000000000000000000000000000000600052602160045260246000fd5b6107cc610876565b6002811115610804577f4e487b7100000000000000000000000000000000000000000000000000000000600052602160045260246000fd5b14610844576040517f08c379a000000000000000000000000000000000000000000000000000000000815260040161083b906113a9565b60405180910390fd5b61087447610850610271565b73ffffffffffffffffffffffffffffffffffffffff16610ce090919063ffffffff16565b565b6000600260009054906101000a900460ff16905090565b6000600160008373ffffffffffffffffffffffffffffffffffffffff1673ffffffffffffffffffffffffffffffffffffffff168152602001908152602001600020549050919050565b6108de610a94565b73ffffffffffffffffffffffffffffffffffffffff166108fc610762565b73ffffffffffffffffffffffffffffffffffffffff1614610952576040517f08c379a000000000000000000000000000000000000000000000000000000000815260040161094990611489565b60405180910390fd5b600073ffffffffffffffffffffffffffffffffffffffff168173ffffffffffffffffffffffffffffffffffffffff1614156109c2576040517f08c379a00000000000000000000000000000000000000000000000000000000081526004016109b9906113c9565b60405180910390fd5b6109cb81610c1c565b50565b60006002811115610a08577f4e487b7100000000000000000000000000000000000000000000000000000000600052602160045260246000fd5b610a10610876565b6002811115610a48577f4e487b7100000000000000000000000000000000000000000000000000000000600052602160045260246000fd5b14610a88576040517f08c379a0000000000000000000000000000000000000000000000000000000008152600401610a7f90611429565b60405180910390fd5b610a9181610dd4565b50565b600033905090565b610aa4610a94565b73ffffffffffffffffffffffffffffffffffffffff16610ac2610762565b73ffffffffffffffffffffffffffffffffffffffff1614610b18576040517f08c379a0000000000000000000000000000000000000000000000000000000008152600401610b0f90611489565b60405180910390fd5b6000600160008373ffffffffffffffffffffffffffffffffffffffff1673ffffffffffffffffffffffffffffffffffffffff1681526020019081526020016000205490506000600160008473ffffffffffffffffffffffffffffffffffffffff1673ffffffffffffffffffffffffffffffffffffffff16815260200190815260200160002081905550610bca818373ffffffffffffffffffffffffffffffffffffffff16610ce090919063ffffffff16565b8173ffffffffffffffffffffffffffffffffffffffff167f7084f5476618d8e60b11ef0d7d3f06914655adb8793e28ff7f018d4c76d505d582604051610c1091906114c9565b60405180910390a25050565b60008060009054906101000a900473ffffffffffffffffffffffffffffffffffffffff169050816000806101000a81548173ffffffffffffffffffffffffffffffffffffffff021916908373ffffffffffffffffffffffffffffffffffffffff1602179055508173ffffffffffffffffffffffffffffffffffffffff168173ffffffffffffffffffffffffffffffffffffffff167f8be0079c531659141344cd1fd0a4f28419497f9722a3daafe3b4186f6b6457e060405160405180910390a35050565b80471015610d23576040517f08c379a0000000000000000000000000000000000000000000000000000000008152600401610d1a90611409565b60405180910390fd5b60008273ffffffffffffffffffffffffffffffffffffffff1682604051610d4990611328565b60006040518083038185875af1925050503d8060008114610d86576040519150601f19603f3d011682016040523d82523d6000602084013e610d8b565b606091505b5050905080610dcf576040517f08c379a0000000000000000000000000000000000000000000000000000000008152600401610dc6906113e9565b60405180910390fd5b505050565b610ddc610a94565b73ffffffffffffffffffffffffffffffffffffffff16610dfa610762565b73ffffffffffffffffffffffffffffffffffffffff1614610e50576040517f08c379a0000000000000000000000000000000000000000000000000000000008152600401610e4790611489565b60405180910390fd5b600034905080600160008473ffffffffffffffffffffffffffffffffffffffff1673ffffffffffffffffffffffffffffffffffffffff1681526020019081526020016000206000828254610ea49190611500565b925050819055508173ffffffffffffffffffffffffffffffffffffffff167f2da466a7b24304f47e87fa2e1e5a81b9831ce54fec19055ce277ca2f39ba42c482604051610ef191906114c9565b60405180910390a25050565b600081359050610f0c81611647565b92915050565b600081359050610f218161165e565b92915050565b600060208284031215610f3957600080fd5b6000610f4784828501610efd565b91505092915050565b600060208284031215610f6257600080fd5b6000610f7084828501610f12565b91505092915050565b610f8281611568565b82525050565b610f9181611556565b82525050565b610fa08161157a565b82525050565b610faf816115c3565b82525050565b6000610fc26038836114ef565b91507f526566756e64457363726f773a2062656e65666963696172792063616e206f6e60008301527f6c79207769746864726177207768696c6520636c6f73656400000000000000006020830152604082019050919050565b60006110286026836114ef565b91507f4f776e61626c653a206e6577206f776e657220697320746865207a65726f206160008301527f64647265737300000000000000000000000000000000000000000000000000006020830152604082019050919050565b600061108e603a836114ef565b91507f416464726573733a20756e61626c6520746f2073656e642076616c75652c207260008301527f6563697069656e74206d617920686176652072657665727465640000000000006020830152604082019050919050565b60006110f4601d836114ef565b91507f416464726573733a20696e73756666696369656e742062616c616e63650000006000830152602082019050919050565b6000611134602b836114ef565b91507f526566756e64457363726f773a2063616e206f6e6c79206465706f736974207760008301527f68696c65206163746976650000000000000000000000000000000000000000006020830152604082019050919050565b600061119a6033836114ef565b91507f436f6e646974696f6e616c457363726f773a207061796565206973206e6f742060008301527f616c6c6f77656420746f207769746864726177000000000000000000000000006020830152604082019050919050565b60006112006029836114ef565b91507f526566756e64457363726f773a2063616e206f6e6c7920636c6f73652077686960008301527f6c652061637469766500000000000000000000000000000000000000000000006020830152604082019050919050565b60006112666020836114ef565b91507f4f776e61626c653a2063616c6c6572206973206e6f7420746865206f776e65726000830152602082019050919050565b60006112a66000836114e4565b9150600082019050919050565b60006112c06032836114ef565b91507f526566756e64457363726f773a2063616e206f6e6c7920656e61626c6520726560008301527f66756e6473207768696c652061637469766500000000000000000000000000006020830152604082019050919050565b611322816115b9565b82525050565b600061133382611299565b9150819050919050565b60006020820190506113526000830184610f88565b92915050565b600060208201905061136d6000830184610f79565b92915050565b60006020820190506113886000830184610f97565b92915050565b60006020820190506113a36000830184610fa6565b92915050565b600060208201905081810360008301526113c281610fb5565b9050919050565b600060208201905081810360008301526113e28161101b565b9050919050565b6000602082019050818103600083015261140281611081565b9050919050565b60006020820190508181036000830152611422816110e7565b9050919050565b6000602082019050818103600083015261144281611127565b9050919050565b600060208201905081810360008301526114628161118d565b9050919050565b60006020820190508181036000830152611482816111f3565b9050919050565b600060208201905081810360008301526114a281611259565b9050919050565b600060208201905081810360008301526114c2816112b3565b9050919050565b60006020820190506114de6000830184611319565b92915050565b600081905092915050565b600082825260208201905092915050565b600061150b826115b9565b9150611516836115b9565b9250827fffffffffffffffffffffffffffffffffffffffffffffffffffffffffffffffff0382111561154b5761154a6115d5565b5b828201905092915050565b600061156182611599565b9050919050565b600061157382611599565b9050919050565b60008115159050919050565b600081905061159482611633565b919050565b600073ffffffffffffffffffffffffffffffffffffffff82169050919050565b6000819050919050565b60006115ce82611586565b9050919050565b7f4e487b7100000000000000000000000000000000000000000000000000000000600052601160045260246000fd5b7f4e487b7100000000000000000000000000000000000000000000000000000000600052602160045260246000fd5b6003811061164457611643611604565b5b50565b61165081611556565b811461165b57600080fd5b50565b61166781611568565b811461167257600080fd5b5056fea26469706673582212203be9713f3b80f5843d4b74cf830ea96c7a785cfc341d8b8fd2095c3daa19bf3e64736f6c63430008000033",
  "linkReferences": {},
  "deployedLinkReferences": {}
}